:030000000209A84A
:0C09A800787FE4F6D8FD7581170209EF96
:0C0A5A000A083F065B4F666D7D077F6F4A
:10080000758601E4F516F517F514F515E5A0B4FFA6
:1008100005E4F512F513E5A0B4FE06751200751394
:1008200001E5A0B4FD06751200751302E5A0B4FC45
:1008300006751200751303E5A0B4FB06751200756A
:100840001304E5A0B4FA06751200751305E5A0B40B
:10085000F906751200751306E5A0B4F806751200C6
:10086000751307E5A0B4F706751200751308E5A027
:10087000B4F606751200751309E517451670037571
:10088000803FE517640145167003758006E517641F
:10089000024516700375805BE51764034516700307
:1008A00075804FE517640445167003758066E5177B
:1008B00064054516700375806DE51764064516706E
:1008C0000375807DE517640745167003758007E59D
:1008D0001764084516700375807FE517640945168F
:1008E000700375806FE51545147005F514751501D5
:1008F000E51564014514700C209709F5147515026F
:10090000F516F517E515640245147005F51475150F
:1009100003E515640345147019C3E5179513E51233
:100920006480F8E516648098500875140075150405
:10093000801FE515640345147017C3E5179513E58B
:10094000126480F8E51664809840067514007515E9
:1009500001E515640445147002C295E5156404456B
:10096000147008209505F514751505E51564054501
:1009700014700A209107D295F514751506E51564D3
:10098000064514701030910DF5147515070517E51F
:100990001770020516E51564074514600302080C7C
:0809A000F51475150302080CA3
:100A3400E4FDFCC3ED9FEE6480F8EC6480985015EF
:100A4400E4FBFA0BBB00010ABA07F8BB94F50DBD31
:050A540000010C80DE32
:010A5900227A
:1009B400020800E493A3F8E493A34003F68001F251
:1009C40008DFF48029E493A3F85407240CC8C33344
:1009D400C4540F4420C8834004F456800146F6DF13
:1009E400E4800B0102040810204080900A5AE47E3F
:1009F400019360BCA3FF543F30E509541FFEE49308
:100A0400A360010ECF54C025E060A840B8E493A3CE
:100A1400FAE493A3F8E493A3C8C582C8CAC583CAF9
:100A2400F0A3C8C582C8CAC583CADFE9DEE780BEB1
:010A6600008F
:00000001FF
