:030000000209D71B
:0C09D700787FE4F6D8FD75811B020A1E33
:0C0A84000A083F065B4F666D7D077F6F20
:10080000758601E4F51AF51BF518F519C295E5A0F2
:10081000B4FF05E4F514F515E5A0B4FE0675140063
:10082000751501E5A0B4FD06751400751502E5A067
:10083000B4FC06751400751503E5A0B4FB06751429
:1008400000751504E5A0B4FA06751400751505E5E4
:10085000A0B4F906751400751506E5A0B4F8067580
:100860001400751507E5A0B4F70675140075150892
:10087000E5A0B4F606751400751509E51B451A7058
:100880000375803FE51B6401451A7003758006E51A
:100890001B6402451A700375805BE51B6403451AEF
:1008A000700375804FE51B6404451A7003758066FC
:1008B000E51B6405451A700375806DE51B640645EC
:1008C0001A700375807DE51B6407451A70037580F7
:1008D00007E51B6408451A700375807FE51B6409F2
:1008E000451A700375806FE51945187002C295E5C9
:1008F0001945187008209505F518751901E5196452
:10090000014518700F20970C209509F518751902EC
:10091000F51AF51BE519640245187005F5187519E7
:1009200003E519640345187019C3E51B9515E51413
:100930006480F8E51A6480985008751800751904E9
:10094000801FE519640345187017C3E51B9515E56D
:10095000146480F8E51A64809840067518007519CB
:1009600001E519640445187002D295E5196404453F
:1009700018700C309509120A63751800751905E591
:1009800019640545187002C295E51964054518708B
:1009900008209505F518751906E5196406451870BF
:1009A00008209105F518751907E5196407451870B1
:1009B0001330911020950DF518751908051BE51BCE
:1009C0007002051AE51964084518600302080EF55F
:0709D0001875190302080E5F
:100A6300758901E4FFFE758C3C758AB0D28C308D9C
:100A7300FDC28DC28C0FBF00010EEF64144E70E6F1
:010A83002250
:0C0A9100851612851713E4F516F51722E0
:1009E300020800E493A3F8E493A34003F68001F222
:1009F30008DFF48029E493A3F85407240CC8C33315
:100A0300C4540F4420C8834004F456800146F6DFE3
:100A1300E4800B0102040810204080900A84E47EE5
:100A2300019360BCA3FF543F30E509541FFEE493D8
:100A3300A360010ECF54C025E060A840B8E493A39F
:100A4300FAE493A3F8E493A3C8C582C8CAC583CACA
:100A5300F0A3C8C582C8CAC583CADFE9DEE780BE82
:010A90000065
:00000001FF
