:03000000020A8071
:0C0A8000787FE4F6D8FD75811D020AC7DE
:0C0B2D000A0A3F065B4F666D7D077F6F74
:10080000758601E4F51CF51DF51AF51BC295F51466
:10081000751501C292F518751901F508F5092097AB
:1008200008751400751501C292E5A0B4FF05E4F542
:1008300016F517E5A0B4FE06751600751701E5A0BC
:10084000B4FD06751600751702E5A0B4FC06751612
:1008500000751703E5A0B4FB06751600751704E5CF
:10086000A0B4FA06751600751705E5A0B4F906756B
:100870001600751706E5A0B4F8067516007517077B
:10088000E5A0B4F706751600751708E5A0B4F606DE
:10089000751600751709E51D451C700375803FE549
:1008A0001D6401451C7003758006E51D6402451C2E
:1008B000700375805BE51D6403451C700375804FF4
:1008C000E51D6404451C7003758066E51D640545DF
:1008D0001C700375806DE51D6406451C70037580F2
:1008E0007DE51D6407451C7003758007E51D6408E0
:1008F000451C700375807FE51D6409451C700375F8
:10090000806FE51B451A7002C295E51B451A7008F9
:10091000209505F51A751B01E51B6401451A700F3A
:1009200020970C209509F51A751B02F51CF51DE59D
:100930001B6402451A7005F51A751B03E51545146D
:100940007011E51B6403451A7009D292F51A751BE4
:10095000018015E51B6403451A700DE5156401451A
:10096000147005F51A751B04E51B6404451A70051F
:10097000F51A751B05E51B6405451A7019C3E51DBD
:100980009517E5166480F8E51C6480985008751A80
:1009900000751B06801FE51B6405451A7017C3E52B
:1009A0001D9517E5166480F8E51C6480984006756F
:1009B0001A00751B01E51B6406451A7002D295E505
:1009C0001B6406451A700F30950C120B3A120B0C73
:1009D000751A00751B07E51B6407451A7002C2955E
:1009E000E51B6407451A7008209505F51A751B0864
:1009F000E51B6408451A7008209105F51A751B0956
:100A0000E51B6409451A7011E51964014518700960
:100A1000F508F509F51A751B0AE51B6409451A70F6
:100A200011E5194518700B3091080509E5097002A8
:100A30000508D3E50994B8E5086480948B400675F1
:100A40001A00751B0AE51B640A451A7017309114C9
:100A5000209511F51A751B0BF508F509051DE51D07
:100A60007002051CE51B640B451A7005F51A751B11
:100A70000330900302081E75180075190102081E44
:100B0C00758901E4FFFE758C3C758AB0D28C308DF2
:100B1C00FDC28DC28C0FBF00010EEF64144E70E647
:010B2C0022A6
:0C0B3A00851814851915E4F518F519222A
:100A8C00020800E493A3F8E493A34003F68001F278
:100A9C0008DFF48029E493A3F85407240CC8C3336B
:100AAC00C4540F4420C8834004F456800146F6DF3A
:100ABC00E4800B0102040810204080900B2DE47E92
:100ACC00019360BCA3FF543F30E509541FFEE4932F
:100ADC00A360010ECF54C025E060A840B8E493A3F6
:100AEC00FAE493A3F8E493A3C8C582C8CAC583CA21
:100AFC00F0A3C8C582C8CAC583CADFE9DEE780BED9
:010B390000BB
:00000001FF
