:030000000209D71B
:0C09D700787FE4F6D8FD758117020A1E37
:0C0A84000A083F065B4F666D7D077F6F20
:10080000758601E4F516F517F514F515C295E5A002
:10081000B4FF05E4F512F513E5A0B4FE0675120069
:10082000751301E5A0B4FD06751200751302E5A06D
:10083000B4FC06751200751303E5A0B4FB0675122F
:1008400000751304E5A0B4FA06751200751305E5EA
:10085000A0B4F906751200751306E5A0B4F8067584
:100860001200751307E5A0B4F7067512007513089A
:10087000E5A0B4F606751200751309E51745167064
:100880000375803FE517640145167003758006E522
:100890001764024516700375805BE51764034516FF
:1008A000700375804FE51764044516700375806604
:1008B000E51764054516700375806DE517640645F8
:1008C00016700375807DE517640745167003758003
:1008D00007E51764084516700375807FE5176409FE
:1008E0004516700375806FE51545147002C295E5D5
:1008F0001545147008209505F514751501E5156466
:10090000014514700F20970C209509F514751502F8
:10091000F516F517E515640245147005F5147515FF
:1009200003E515640345147019C3E5179513E51223
:100930006480F8E5166480985008751400751504F5
:10094000801FE515640345147017C3E5179513E57B
:10095000126480F8E51664809840067514007515D9
:1009600001E515640445147002D295E5156404454B
:1009700014700C309509120A63751400751505E59D
:1009800015640545147002C295E51564054514709B
:1009900008209505F514751506E5156406451470CF
:1009A00008209105F514751507E5156407451470C1
:1009B0001330911020950DF5147515080517E517DE
:1009C00070020516E51564084514600302080EF56B
:0709D0001475150302080E67
:100A6300758901E4FFFE758C3C758AB0D28C308D9C
:100A7300FDC28DC28C0FBF00010EEF64144E70E6F1
:010A83002250
:1009E300020800E493A3F8E493A34003F68001F222
:1009F30008DFF48029E493A3F85407240CC8C33315
:100A0300C4540F4420C8834004F456800146F6DFE3
:100A1300E4800B0102040810204080900A84E47EE5
:100A2300019360BCA3FF543F30E509541FFEE493D8
:100A3300A360010ECF54C025E060A840B8E493A39F
:100A4300FAE493A3F8E493A3C8C582C8CAC583CACA
:100A5300F0A3C8C582C8CAC583CADFE9DEE780BE82
:010A90000065
:00000001FF
