:020000040800F2
:100000005004002045010008DD07000857070008DC
:10001000D90700081F040008DD0C000800000000DC
:10002000000000000000000000000000F5080008CB
:10003000C505000800000000DF070008690A000885
:100040005F0100085F0100085F0100085F01000810
:100050005F0100085F0100085F0100085F01000800
:100060005F0100085F0100085F0100085F010008F0
:100070005F0100085F0100085F0100085F010008E0
:100080005F0100085F0100085F0100085F010008D0
:100090005F0100085F0100085F0100085F010008C0
:1000A0005F0100085F0100085F0100085F010008B0
:1000B0005F0100085F0100085F0100085F010008A0
:1000C0005F0100085F0100085F0100085F01000890
:1000D0005F0100085F0100085F0100085F01000880
:1000E0005F0100085F0100085F0100085F01000870
:1000F0005F0100085F0100085F0100085F01000860
:100100005F0100085F0100085F0100085F0100084F
:100110005F0100085F0100085F0100085F0100083F
:100120005F0100085F0100085F0100085F0100082F
:10013000DFF80CD000F018F8004800473D0E00082A
:10014000500400200648804706480047FEE7FEE7C7
:10015000FEE7FEE7FEE7FEE7FEE7FEE7FEE7FEE777
:100160006D0A000831010008064C074D06E0E06802
:1001700040F0010394E8070098471034AC42F6D3EE
:10018000FFF7DAFF80160008A016000821B1826888
:1001900042F00102826003E0826822F00102826084
:1001A0007047000000B591B00121084600F018FB2F
:1001B000012140F2112000F023FB1020ADF80000D7
:1001C00003208DF8020000208DF8030069463348B3
:1001D00000F038FA324800F031F9324801903248E4
:1001E00002900020039001200490002005900690CA
:1001F0004FF4807007908000089020200990000242
:100200000A9000200B9001A9254800F0BDF90121BA
:10021000234800F006F900200C9001208DF83400EE
:100220008DF835004FF460200E9000200F900120D3
:100230008DF840000CA91B484C3800F057F80723F4
:1002400001220E2117484C3800F078F8012115489A
:100250004C3800F02BF8012112484C38FFF796FF7C
:1002600010484C3800F0C6F800BF0E484C3800F07B
:1002700032F80028F9D10B484C3800F0CBF800BF19
:1002800008484C3800F01DF80028F9D10121054834
:100290004C3800F0B4F811B000BD0000001001406F
:1002A000080002404C2401402A00002021B182684D
:1002B00042F48072826003E0826822F4807282607D
:1002C0007047014600208A6812F0040F01D0012017
:1002D00000E000207047014600208A6812F0080FF5
:1002E00001D0012000E000207047000030B5024638
:1002F0000020002350680F4C20400D790C6844EA20
:1003000005242043506090680B4C2040D1E90254F2
:100310002C434D7944EA450420439060D06A20F490
:1003200070000C7C641EE4B2234340EA0350D062A8
:1003300030BD0000FFFEF0FFFDF7F1FFF0B5044611
:100340000D4600200021092D11DDE068A5F10A0607
:1003500006EB4607072606FA07F18843A5F10A06C9
:1003600006EB460603FA06F10843E0600CE020695C
:1003700005EB4507072606FA07F1884305EB450616
:1003800003FA06F108432061072A0FDA606B561E54
:1003900006EB86071F2606FA07F18843561E06EB72
:1003A000860605FA06F10843606322E00D2A0FDA9B
:1003B000206BD61F06EB86071F2606FA07F1884337
:1003C000D61F06EB860605FA06F10843206310E007
:1003D000E06AA2F10D0606EB86071F2606FA07F172
:1003E0008843A2F10D0606EB860605FA06F10843DE
:1003F000E062F0BD816841F008018160704721B181
:10040000826842F4A002826003E0826822F4A002C3
:1004100082607047816841F004018160704700BFCD
:10042000FEE721B1026842F00102026004E00268C6
:100430004FF6FE731A4002607047000001684FF6E5
:10044000FE72114001600021016041608160C16065
:100450004B49884208D14A490839496841F00F019F
:10046000474A083A51608AE045491431884208D128
:1004700043490839496841F0F001414A083A51605E
:100480007DE03F492831884208D13D490839496813
:1004900041F470613A4A083A516070E038493C31A1
:1004A000884208D136490839496841F47041344AD4
:1004B000083A516063E032495031884208D13049EE
:1004C0000839496841F470212D4A083A516056E0D4
:1004D0002B496431884208D129490839496841F4D7
:1004E0007001274A083A516049E02549783188422D
:1004F00008D123490839496841F07061204A083A17
:1005000051603CE01F49884206D1011F096841F053
:100510000F01021F116032E01A491431884208D1DC
:100520001849091F096841F0F001164A121F1160AD
:1005300025E014492831884208D11249091F096869
:1005400041F470610F4A121F116018E00D493C31EF
:10055000884208D10B49091F096841F47041094AD2
:10056000121F11600BE007495031884207D105493D
:10057000091F096841F47021024A121F1160704777
:10058000080002400804024010B50022026847F645
:10059000F0739A430C6A8B6823430C6923434C69BC
:1005A00023438C692343CC6923434C6A23438C6ADD
:1005B00023431A430260CB6843600B6883604B6837
:1005C000C36010BD7047000008B50121402000F055
:1005D00017F90121080200F013F90121202000F091
:1005E0000FF94FF68070ADF8000003208DF802007F
:1005F00010208DF8030069460F4800F023F84FF4EF
:10060000FC40ADF8000003208DF8020048208DF872
:1006100003006946094800F015F8FF20ADF8000016
:1006200003208DF8020048208DF803006946044835
:1006300000F008F808BD000000180140002001404B
:10064000001401402DE9F04102460025002600205B
:1006500000230024002791F803C00CF00F0591F847
:1006600003C01CF0100F03D091F802C04CEA05053E
:1006700091F800C0BCF1000F31D0146800202BE0CD
:100680004FF0010C0CFA00F3B1F800C00CEA0306BD
:100690009E4220D183004FF00F0C0CFA03F7BC43AD
:1006A00005FA03FC4CEA040491F803C0BCF1280FDE
:1006B00006D14FF0010C0CFA00FCC2F814C00AE09D
:1006C00091F803C0BCF1480F05D14FF0010C0CFAB2
:1006D00000FCC2F810C0401C0828D1D31460B1F847
:1006E00000C0BCF1FF0F34DD546800202EE000F1A3
:1006F000080C4FF0010808FA0CF3B1F800C00CEA3E
:1007000003069E4221D183004FF00F0C0CFA03F731
:10071000BC4305FA03FC4CEA040491F803C0BCF1A5
:10072000280F05D100F1080C08FA0CF8C2F8148063
:1007300091F803C0BCF1480F07D100F1080C4FF04D
:10074000010808FA0CF8C2F81080401C0828CED323
:100750005460BDE8F08100BFFEE7000000B5002056
:1007600015490861C8601420486100208861C8618B
:100770000846006840F001000860084640680F49DC
:1007800008400D494860084600680D4908400A497C
:1007900008600846006820F4802008600846406829
:1007A00020F4FE0048600020886000214FF00060C7
:1007B00000F008F800BD0000001002400000FFF843
:1007C000FFFFF6FE024A0A400243024B1A607047DE
:1007D00080FFFF1F08ED00E000BFFEE77047704795
:1007E00029B1064A52690243044B5A6104E0034AA4
:1007F00052698243014B5A61704700000010024069
:1008000029B1064A92690243044B9A6104E0034A03
:1008100092698243014B9A617047000000100240C8
:1008200030B500210022002400232D4D6D6805F015
:100830000C0121B1042905D0082923D105E0294D57
:10084000056022E0274D05601FE0254D6D6805F429
:100850007012234D6D6805F48034022505EB924239
:100860001CB9214D554305600BE01D4D6D6815F415
:10087000003F03D01C4D5543056002E0194D554320
:10088000056002E0174D056000BF00BF144D6D68A4
:1008900005F0F0010909154D6B5C0568DD40456008
:1008A0000F4D6D6805F4E061090A104D6B5C4568F9
:1008B000DD4085600A4D6D6805F46051C90A0B4D35
:1008C0006B5C4568DD40C560054D6D6805F44041D1
:1008D000890B074D6B5CC568B5FBF3F5056130BD51
:1008E0000010024000127A0000093D003400002090
:1008F00044000020704710B500F002F810BD000061
:100900000CB50020019000903248006840F480301F
:100910003049086000BF2F48006800F400300090A4
:100920000198401C0190009818B90198B0F5A06F8B
:10093000F1D12848006810F4003F02D00120009057
:1009400001E0002000900098012842D12248006870
:1009500040F01000204908600846006820F00300BD
:1009600008600846006840F00200086019484068C6
:10097000184948600846406848600846406840F4A6
:10098000806048600846406820F47C104860084653
:10099000406840F4E81048600846006840F0807005
:1009A000086000BF0B48006810F0007FFAD00948CB
:1009B000406820F00300074948600846406840F05E
:1009C0000200486000BF0348406800F00C0008289F
:1009D000F9D10CBD001002400020024030B50446A1
:1009E0000025FFF7BBFE1E48006840F480301C491C
:1009F000086000BF1A480068400CFBD04FF48060CC
:100A000017494860A01EC4B20846406840EA8440C6
:100A100048600846406840F48030486011480068EB
:100A200040F032000F4908600D48006840F08070C7
:100A30000B49086000BF0A480068400EFBD0084818
:100A4000406840F002000649486005E004484068FC
:100A5000C0F3870505F00305022DF7D130BD000076
:100A600000100240002002407047000010B51348FB
:100A7000006840F0010011490860084640681049CC
:100A800008400E494860084600680E4908400B4976
:100A900008600846006820F4802008600846406826
:100AA00020F4FE0048604FF41F008860FFF723FF2A
:100AB0004FF000600449086010BD000000100240C3
:100AC0000000FFF8FFFFF6FE08ED00E001F4007201
:100AD000B2F5007F00D100BFCA430280704721B148
:100AE000828942F40052828104E082894DF6FF73CC
:100AF0001A4082817047000000B585B0012144F2A0
:100B00000400FFF77DFE4FF40070ADF810001820D0
:100B10008DF8130003208DF8120004A91C48FFF77C
:100B200091FD4FF48060ADF8100004208DF81300A3
:100B300003208DF8120004A91548FFF783FD4FF438
:100B4000E13000900020ADF80400ADF80600ADF8EB
:100B50000800ADF80C000C20ADF80A0069460D48FD
:100B600000F04CF8012240F225510A4800F021F82B
:100B7000012240F22771074800F01BF84021054888
:100B8000FFF7A4FF01210348FFF7A9FF05B000BD4F
:100B9000000801400038014002460020B1F5007F06
:100BA00000D100BF13880B4201D0012000E00020DB
:100BB0007047F0B503460024002600250020A1F56B
:100BC00010676A3F00D100BF1846C1F3421401F01C
:100BD0001F06012707FA06F5012C01D10C3004E0AD
:100BE000022C01D1103000E014301AB107682F43F5
:100BF000076002E00768AF430760F0BD2DE9F047EA
:100C000086B005460E460024A24600BFA146002736
:100C1000B08900B100BF2F462C8A4CF6FF7004400B
:100C2000F08804432C82AC894EF6F3100440B0885F
:100C300031890843718908430443AC81AC8A4FF67B
:100C4000FF400440B0890443AC8201A8FFF7E8FDEF
:100C50001F48874202D1DDF810A001E0DDF80CA0AA
:100C6000A88910F4004F08D00AEBCA0000EB0A1064
:100C700031684900B0FBF1F807E00AEBCA0000EB6D
:100C80000A1031688900B0FBF1F86420B8FBF0F07D
:100C900004012009642101FB1089A88910F4004F88
:100CA00008D0322000EBC900B0FBF1F000F00700E3
:100CB000044308E0322000EB09106421B0FBF1F09E
:100CC00000F00F0004432C8106B0BDE8F08700005F
:100CD00000380140C1F308028280704700BFFEE780
:100CE000014A024900F013B8C50D00084C0000206D
:100CF00002E008C8121F08C1002AFAD170477047E5
:100D0000002001E001C1121F002AFBD170472DE92C
:100D1000F04116460F460446002503E03946B04729
:100D20006D1C641C20780028F8D12846BDE8F081AD
:100D30000348007803490870002001490870704793
:100D40000C0000200D0000204FF0E021096921F087
:100D500004014FF0E0221161C21700EB5272C2F39E
:100D6000C702074B1A701946097801EB4102C2EB22
:100D7000C1114FF6FF7202EAC101024A11807047A9
:100D8000480000204A00002001460D4A12884A43CC
:100D90004FF0E0235A6100229A6101221A6100BFDC
:100DA0004FF0E022106910F0010F02D010F4803FE4
:100DB000F6D000224FF0E0231A619A6170470000DC
:100DC0004A00002070B504460D46E1B20548FFF721
:100DD00081FF00BF40210348FFF7DEFE0028F9D065
:100DE000204670BD0038014010B500200D49086054
:100DF0000D4908704FF00A00FFF7C6FF00200B49AD
:100E0000C1F8A00100BF0A4800680028FBD10949C9
:100E100008600649C1F89C014FF0010006490870BE
:100E200010BD0000A8012342000000200000234262
:100E300024012442A40123420B0000200920FFF7D3
:100E4000CDFD4820FFF780FFFFF7BEFBFFF754FE04
:100E5000FFF7A8F9F848FFF743FFF7484430FFF7DA
:100E60003FFFF5488830FFF73BFFF3484430FFF77A
:100E700037FFF148FFF734FF5AE3F048007818B124
:100E80000120EF49087025E0EE48007818B10220F3
:100E9000EB4908701EE0EC48007818B10420E849DE
:100EA000087017E0E948007818B10520E449087097
:100EB00010E0E748007818B10620E149087009E021
:100EC000E448007818B10720DD49087002E00020EE
:100ED000DB490870DA48007818B3DF480088401C06
:100EE000DD490880002407E0E1B2D548007800F031
:100EF0004BFBDA490855641C082CF5DBD748007811
:100F000010B10120D6490860D448407810B10120C2
:100F1000D4490860D148807810B10120D2490860D6
:100F200009E00020CE490860D049C1F8B801CE4997
:100F30000860C9490880CE48006810B90120CD4931
:100F40000870CD48006888B1CC480088401CCB4967
:100F500008800846008842F21071884202DD0120B4
:100F6000BA4908700120FFF70FFF04E00020C349D1
:100F70000880B6490870C248007818B10120C149FC
:100F8000086002E00020BF490860BF4800680128EF
:100F90000DD10020A9490870AA490870AC49087011
:100FA000AC490870A84908700120B8490870B848D1
:100FB000006870B9B748006858B9B748006840B9C8
:100FC000B648006828B90120B5490860B5490870DD
:100FD00004E00020B2490860B2490870B2480068D5
:100FE000002879D00020B1490870B1490870B14893
:100FF0000078012806DAFFF7F7FEAE480078401CBB
:10100000AC490870AC480078C8B1AC480068B0B9C9
:101010000A20FFF7B9FE0020A7490870A848006819
:1010200008B9012000E00020A54908608F48D0F8E9
:10103000A80108B9012000E00020984908609F48F5
:10104000006828B10A20FFF79FFE01209A49087026
:101050009C48007880B19C48006868B90A20FFF776
:1010600093FE0020974908708A48006808B901205B
:1010700000E00020874908609348006828B10A20F2
:10108000FFF782FE01208F49087090480068B8B1D0
:101090008F480078A0B18F48006888B90A20FFF710
:1010A00073FE00208A49087001207B490860FFF721
:1010B0003FFEFA20FFF768FE00206C49C1F8A4014A
:1010C00084480068002805D00A20FFF75DFE012053
:1010D0007F4908702CE2FFE70020764908705848E5
:1010E000007818B156480078052802D16648006893
:1010F00008B1FFF779FE7848006810B90120664909
:1011000008606348006810B90020634908606848B7
:101110000078012806DAFFF767FE65480078401C72
:101120006349087066480068A8B9594800680128F2
:1011300011D16A480088401C684908800846008828
:1011400040F6B831884202DD012041490870012093
:10115000FFF71AFE02E00020604908805848006846
:10116000012815D15C480068012811D15C4800882D
:10117000401C5B4908800846008840F6B831884228
:1011800002DD0120334908700120FFF7FDFD02E078
:101190000020534908803D48007890B951480078B4
:1011A00001280ED100204F4908704F480078401C9C
:1011B0004D49087008460078012802DD01202249C7
:1011C00008703248007810B101204649087037484D
:1011D000007810BB2C480068F8B91948007808B9A5
:1011E000012000E0002016490978052901D10121DC
:1011F00000E00021084310D0002038490880384919
:1012000008803A4908803A4908803A490880012014
:1012100026490870002038490870244800780128C1
:1012200007D11948006820B90548007810B9012095
:1012300065E089E062E00000B415000811000020BC
:1012400007000020120000201600002015000020DA
:101250001300002014000020260000202C00002095
:10126000BC012342B8012342B401234200002342BF
:10127000340124420C0000203801244224000020C4
:101280000B000020B0012342088122420D00002003
:10129000240124429C012342A4012342A8012342A9
:1012A000AC0123420A0000200081224200000020FD
:1012B00001000020020000200300002010812242D3
:1012C000A001234204000020148122420C8122420A
:1012D000050000201881224228012442200000201D
:1012E000220000200F000020100000201800002025
:1012F0001A0000201E0000200E00002000208D4952
:101300000978052901D1012100E0002108431BD003
:101310008948007820B1FFF70BFD0020864908704E
:101320008648006880B98648006801280CD1854845
:10133000006848B984480078012805D10A20FFF7E1
:1013400023FD0220814908708048007802281ED1C0
:101350007F480068D8B97748007808B9012000E0D4
:10136000002074490978052901D1012100E00021FC
:1013700008430CD0002077490870012076490860A6
:101380007648D0F8280110B90320704908706F48DA
:10139000007803282DD16E48006818BB6548007896
:1013A00008B9012000E0002062490978052901D12F
:1013B000012100E0002108431BD00120684908609A
:1013C0005D4908706749C1F89C0167480088B0F51D
:1013D000967F08DA64480088401C63490880012031
:1013E000FFF7D2FC05E004205849087000205E4950
:1013F00008805648007804282FD15548006860BB03
:101400004C48007808B9012000E0002049490978DB
:10141000052901D1012100E0002108431DD05348D6
:101420000068012806D1052048490870002050496D
:10143000088012E04E480088401C4D49088008464C
:101440000088B0F5FA6F05DB01204A4908700020DA
:10145000474908800120FFF797FC3C4800780528A1
:1014600021D13B480068F0B93248007808B9012022
:1014700000E000202F490978052901D1012100E071
:10148000002108430FD001203B490870084600782E
:1014900018B901203949087005E06420FFF774FC91
:1014A00006202A49087029480078062820D12848B3
:1014B0000068E8B91F48007808B9012000E0002062
:1014C0001C490978052901D1012100E000210843C8
:1014D0000ED00020224908602249C1F8A001194815
:1014E000006828B9072019490870012019490870B7
:1014F0001648007807281BD115480068C0B90D4868
:10150000007808B9012000E000200A49097805297F
:1015100001D1012100E00021084309D00020184931
:1015200008601848D0F80C0110B90120074908706C
:10153000A3E40000070000200E00002004812242E6
:101540000C812242240124420A00002000000020D5
:10155000088122420B000020A00123420000244207
:10156000A801234200002342180000202C0124423D
:101570001A000020110000200900002012000020A5
:101580009C0123420080224230B5024600230CE039
:10159000144602EBD4756D10A2EB4505E8B202EBE0
:1015A000D475C5F347025C1CE3B24C1CA342EFDBCD
:1015B00030BD00002A2A2A2A2A2A2A2A2A2A2A2A46
:1015C0002A2A2A2A2A2A2A2A2A2A2A2A2A2A2A2A7B
:1015D0002A2A2A2A2A2A2A2A2A2A2A2A2A2A2A2A6B
:1015E0002A2A2A2A2A2A2A2A2A2A2A2A2A2A2A2A5B
:1015F0002A2A2A2A2A0D0A002A20202020202020F8
:1016000020202020202020202020202020202020DA
:1016100020202020202020202020202020202020CA
:1016200020202020202020202020202020202020BA
:1016300020202020202020202A0D0A002A202054AB
:1016400068616E6B20796F7520666F7220757369A3
:101650006E672048592D52656442756C6C20563374
:101660002E3020446576656C6F706D656E74204217
:101670006F6172642021205E5F5E20202A0D0A00C7
:10168000A01600080000002050000000F00C000828
:10169000F01600085000002000040000000D0008B3
:1016A0000000000101010100000000000000000036
:1016B000000000000000000000000000000000002A
:1016C000000000000000000000000000000000001A
:1016D00000000000000000000102030401020304F6
:1016E00006070809020406080000000000000000C8
:0400000508000131BD
:00000001FF
